:020000040800F2
:1000000000000220D51C0008111400081314000879
:100010001514000817140008191400080000000047
:100020000000000000000000000000001B14000899
:100030001D140008000000001F140008211400080F
:10004000251D0008251D0008251D0008251D000888
:10005000251D0008251D0008251D0008251D000878
:10006000251D0008251D0008251D0008251D000868
:10007000251D0008251D0008251D0008251D000858
:10008000251D0008251D0008251D0008251D000848
:10009000251D0008251D0008251D0008251D000838
:1000A0003D1400083F1400084114000843140008E0
:1000B000451400084714000849140008251D0008CD
:1000C000251D0008251D0008251D0008251D000808
:1000D000251D0008251D0008251D0008251D0008F8
:1000E000251D0008251D0008251D00084B140008CB
:1000F0004D1400084F14000851140008251D000875
:10010000251D0008251D000853140008251D0008A2
:10011000251D0008251D0008551400087D14000841
:10012000251D0008251D0008251D0008251D0008A7
:10013000251D0008251D0008251D0008251D000897
:10014000251D0008251D0008251D0008251D000887
:10015000251D0008251D0008251D0008251D000877
:10016000251D0008251D0008251D0008251D000867
:10017000251D0008251D0008251D0008251D000857
:08018000251D0008251D0008E3
:1001880010B5054C237833B9044B13B10448AFF3C9
:1001980000800123237010BD7000002000000000C3
:1001A800581E000808B5034B1BB103490348AFF3B9
:1001B800008008BD0000000074000020581E0008E0
:1001C80053B94AB9002908BF00281CBF4FF0FF31B6
:1001D8004FF0FF3001F0DEB8ADF1080C6DE904CE48
:1001E80000F006F8DDF804E0DDE9022304B070470A
:1001F8002DE9F047089D04468E46002B4DD18A42D2
:10020800944669D9B2FA82F252B101FA02F3C2F104
:10021800200120FA01F10CFA02FC41EA030E944095
:100228004FEA1C48210CBEFBF8F61FFA8CF708FBB6
:1002380016E341EA034306FB07F199420AD91CEB8E
:10024800030306F1FF3080F01F81994240F21C81C0
:10025800023E63445B1AA4B2B3FBF8F008FB103308
:1002680044EA034400FB07F7A7420AD91CEB04043D
:1002780000F1FF3380F00A81A74240F2078164440D
:10028800023840EA0640E41B00261DB1D440002392
:10029800C5E900433146BDE8F0878B4209D9002DF6
:1002A80000F0EF800026C5E9000130463146BDE880
:1002B800F087B3FA83F6002E4AD18B4202D38242EA
:1002C80000F2F980841A61EB030301209E46002D99
:1002D800E0D0C5E9004EDDE702B9FFDEB2FA82F2EE
:1002E800002A40F09280A1EB0C014FEA1C471FFA4C
:1002F8008CFE0126200CB1FBF7F307FB131140EA33
:1003080001410EFB03F0884208D91CEB010103F1FF
:10031800FF3802D2884200F2CB804346091AA4B2C1
:10032800B1FBF7F007FB101144EA01440EFB00FE95
:10033800A64508D91CEB040400F1FF3102D2A645FA
:1003480000F2BB800846A4EB0E0440EA03409CE799
:10035800C6F12007B34022FA07FC4CEA030C20FA46
:1003680007F401FA06F31C43F9404FEA1C4900FA66
:1003780006F3B1FBF9F8200C1FFA8CFE09FB1811E3
:1003880040EA014108FB0EF0884202FA06F20BD956
:100398001CEB010108F1FF3A80F08880884240F2A6
:1003A8008580A8F102086144091AA4B2B1FBF9F0EA
:1003B80009FB101144EA014100FB0EFE8E4508D9E5
:1003C8001CEB010100F1FF346CD28E456AD902386A
:1003D800614440EA0840A0FB0294A1EB0E01A1424F
:1003E800C846A64656D353D05DB1B3EB080261EBBD
:1003F8000E0101FA07F722FA06F3F1401F43C5E997
:10040800007100263146BDE8F087C2F12003D840CC
:100418000CFA02FC21FA03F3914001434FEA1C470E
:100428001FFA8CFEB3FBF7F007FB10360B0C43EA00
:10043800064300FB0EF69E4204FA02F408D91CEBB0
:10044800030300F1FF382FD29E422DD902386344AE
:100458009B1B89B2B3FBF7F607FB163341EA03414E
:1004680006FB0EF38B4208D91CEB010106F1FF389D
:1004780016D28B4214D9023E6144C91A46EA004694
:1004880038E72E46284605E70646E3E61846F8E626
:100498004B45A9D2B9EB020864EB0C0E0138A3E76F
:1004A8004646EAE7204694E74046D1E7D0467BE750
:1004B800023B614432E7304609E76444023842E7C8
:1004C80003685A004CBF43F0004323F0004318442C
:1004D800704700BF2DE9F84329B34F1E044615465F
:1004E8003E464FF0000808EB060101EBD1714910B8
:1004F80004EBC1094846FFF7E3FF0346C80008308C
:100508008F42204409D0AB4209D8FFF7D9FF013800
:10051800A8420AD201F10108E5E7AB4205D98845AE
:1005280001D04E1EDFE74FF000094846BDE8F883CA
:10053800012807D0022807D0044B00280CBF184612
:10054800002070470248704702487047110C0008A5
:10055800150C0008190C000830B5234B83B004466D
:100568008D1E3BB301A92846AFF30080E8B101997D
:100578002A46FFF7AFFF0146B8B1FFF7A1FF4B6866
:10058800A064012B2CD0002B01F1040024DBFFF721
:1005980097FF0023C4E913030368002B11DBFFF75F
:1005A8008FFF2061002003B030BD002309202361A4
:1005B80003B030BD0D4B0E49C91AC9101846019138
:1005C800D6E7C3F30360FFF7B3FF0028206114BF29
:1005D8000020092003B030BD0123C4E91303DBE781
:1005E800002323610520DEE700000000041F000847
:1005F800D41F00080368DA0710B5044606D49B0721
:1006080000F1480009D500F05BFC2368590709D5BB
:100618001A070ED5DB0613D510BD00F049FC236878
:100628005907F5D404F1D00000F052FC23681A07EA
:10063800F0D404F5A87000F053FC2368DB06EBD473
:1006480004F5E870BDE8104000F08EBC0920704742
:100658000346006800B11844704700BF704700BFE8
:1006680070B504460E46316C2046FFF775FF054607
:1006780088B9326C62612369324621460120984765
:100688000828F0D0072806D12846316CFFF7E6FF86
:10069800301D00F001FC01F06FFB00BF2DE9F047B1
:1006A8000D1DD0F80C80D0F81890074614460FCDD1
:1006B800ADF5727D0DF10C0CACE80F000FCDACE878
:1006C8000F000FCDACE80F0095E80F0002AE4FF019
:1006D800000E8CE80F00C6F800E020E0336C7B6168
:1006E8004FF4F07231467AA801F04DFB3B697AAAC3
:1006F800394650469847889B73642146CDE900697E
:1007080005463B463A460120C0470446E0B94FF447
:10071800F0727AA9304601F036FB082D1AD1316CF7
:100728003846FFF719FF09345FFA84FA05460028AE
:10073800D4D0B36B73643A46CDE900693B464AF0BE
:1007480010010120C04700B1092528460DF5727D2A
:10075800BDE8F087072DF7D12046316CFFF77EFF03
:1007680003A800F099FB00BF406C7047F0B5CB6B55
:100778000B6401F1040C0E460546BCE80F00F9B005
:1007880001AC0FC4BCE80F000FC4BCE80F000FC4D5
:100798009CE80F004FF0FF3784E80F00009706E051
:1007A8002B696A46294698470828044608D11099B3
:1007B8002846FFF7D1FE0028F2D0092079B0F0BD15
:1007C8006846FFF717FF062CF7D131462846FFF792
:1007D80047FF00BFC160D96B8261196400221946C6
:1007E8005CE700BF70B5C66843690B64AEB90369BE
:1007F8000A4604460D46014602209847072805D0B8
:1008080008280FD129462046FFF72AFF3046296CD1
:10081800FFF724FF281D00F03FFB0122FFF73EFFF2
:1008280001F0AAFA01F0A8FAC2681AB1CA6B0A6400
:10083800002233E79AE700BF704700BF836801468C
:100848000BB1012018477047012912D009D873B994
:100858000F2A0CD800EB820218465368009A1360DE
:1008680070470339012994BF0120022070470220F4
:1008780070470846704700BF00B585B00A46002398
:1008880003A900911946FFF7DFFF039805B05DF84B
:1008980004FB00BF012912D009D873B90F2A0CD85C
:1008A80000EB8200009A12684260184670470339CC
:1008B800012994BF01200220704702207047084692
:1008C800704700BF10B584B0002303AC03920094B6
:1008D8000A461946FFF7DEFF04B010BD70B5D36BAA
:1008E800136402F1040C05460C46BCE80F00ADF594
:1008F8000E7D0DF15C0EAEE80F00BCE80F00AEE80F
:100908000F00BCE80F00AEE80F009CE80F004FF0A6
:10091800FF368EE80F00169610E0FFF7D3FF21464A
:1009280016A8A847034616AA6946082083B9049B57
:100938009847052806460CD0092809D02699684604
:10094800FFF70AFE03466A460C2116A8002BE4D0DE
:10095800092616A8FFF74EFE30460DF50E7D70BD30
:100968002DE9F04FCC6C89B01E4654F8043B069430
:100978000D46174600F00308002E79D01A0C1B0408
:1009880005938DF81D200223D2B204EB82048DF862
:100998001C302B6DB8F1020F08BFAC6B13F00103CC
:1009A8000CD005A9384600F079FB18B9082009B021
:1009B800BDE8F08F092009B0BDE8F08FD4F800A099
:1009C800BAF1000FEDD0019300F008030293022E54
:1009D8004AD0B4F800A0B4F802900434AB6C29F003
:1009E800010B0F2138469B44FFF746FF834539D852
:1009F8002AF001039B44834594BF002001204FEA5D
:100A0800490303F002030AF0010A43EA0A03012B2F
:100A180049D0022B32D0002BCCD1B8F1000F02D034
:100A2800002840F0CD800434D4F800A0BAF1000FBB
:100A3800CDD105A9384600F031FB0028BAD1019B79
:100A4800002BB3D00F213846FFF716FF0E210246C0
:100A58003846FFF737FF38466A4A0F21FFF732FF5B
:100A68000720A8E70020CAE7D4F804900834B5E7BF
:100A78001B0205930323ADF81C308AE7236823F093
:100A8800004BB8F1000F45D128B1029A002A5CD07A
:100A9800BBF1000F74D0002B00DA04340BF1010B0A
:100AA80004EB8B04C0E7B8F1000F19D1B0B163684B
:100AB8002268991C4FEAD2723FF47CAF05F15801C5
:100AC8000133049100F09080201DFFF7C1FD04ABB5
:100AD80001462846AFF3008000285BD10834A3E71D
:100AE8000D213846D5F82090FFF7C6FE8145F5D18F
:100AF800AB6A9C42F2D12046FFF7E2FC0F21024686
:100B08003846FFF7DFFE38462A460021FFF7DAFEAF
:100B1800072050E70D213846D5F82090FFF7ACFEA6
:100B2800814501D02368B6E7AB6A9C42FAD1042319
:100B38000022C5E90B23E318C5F828B06B632368C6
:100B4800002B59DB01230193A8E705F15803CDF8E1
:100B58000C8004F1040AB04691461E460EE0504649
:100B68000496FFF775FD0022014604AB284609F1FB
:100B780001090AF1040AAFF30080E0B9D945EED1C2
:100B88000D213846FFF778FE049BAC62C5E90803DF
:100B9800062010E781460D213846FFF76DFEB9F1B2
:100BA800020F286225D12B46049A43F82C2F6B623A
:100BB800AC620620FFE646462368DDF80C806AE74B
:100BC8002046FFF77DFC04340246AC6328461446F1
:100BD800AFF3008000283FF4EDAE384622460F21DF
:100BE800FFF770FE0720E6E60D213846FFF744FEC2
:100BF8002862049B6B62DBE70BF1010004EB8000C9
:100C08007AE700BF000000000023A9E60123A7E659
:100C18000223A5E62DE9F0430646C3B015461C4657
:100C2800042900F2BF80DFE801F09E57BD2D0300C4
:100C3800002C40F0B780102A00F2B4800368D80670
:100C480000F1F98020AF384600F098F9B46B3946C6
:100C580000234FF0010C0CFA03F22A42204603F15C
:100C6800010303D050F8042B0A600446042B01F159
:100C78000401F0D13846B46300F076F9002043B09F
:100C8800BDE8F083032C40F08D8094B204EB12434E
:100C9800102B4FEA124500F2858003681F0700F108
:100CA800D28020AF384600F03DF9B26B07EBC501A2
:100CB80054B10B46D01A01EBC401E4001D5843F8A7
:100CC800045B8B42FAD122443846B26300F008F93B
:100CD800002043B0BDE8F083012C4FEA124895B2DA
:100CE8005CD0052C5ED108EB0509B9F1200F59D865
:100CF800B8F10F0F79D9A946002D40F08A80B36B5F
:100D08006DB320AF4FF0000907EBC807043F03EBB2
:100D1800C50553F8041B47F8041FAB42F9D1B9F1D4
:100D2800000F0FD06F464146102938BF102107EB3E
:100D3800C101843903EBC90553F8040B41F8040FCA
:100D4800AB42F9D1012C00F08680B8F10F0FB563E2
:100D580047D9B9F1000F02D0684600F0B9F8002071
:100D680043B0BDE8F083ECB9806B23461FFA82FCE0
:100D78000124371D04FA03F212EA0C0F014604D0CD
:100D880051F8042B47F8232008460133102BF1D1E2
:100D980015F40055E3D1B063284604E008EB0503D9
:100DA800102B03D9022043B0BDE8F083B8F10F0F30
:100DB800F8D83368DA0706D5304623F0030340F83D
:100DC800483B00F079F820AF384600F075F8B36B6F
:100DD800002D97D11D460435B563384600F068F8F4
:100DE800BDE720A800F06CF8B3E7B9F1100F40D9BF
:100DF800A9F110093368D90708D523F00103304653
:100E080043F0020340F8483B00F05EF8B9F1000FE8
:100E180032D033685A0720D4B8F10F0F25D96F465E
:100E28003846C8F1100500F057F8002DB36B7FF76E
:100E38007AAF20AF68E723F01003336006F5E87057
:100E480000F09CF8FEE623F00803036000F5A870A4
:100E580000F068F825E720AFBDE7304623F004032B
:100E680040F8D03B00F038F8D6E720A800F02CF87E
:100E7800D5E74FF00009BDE7B8F10F0F3FF63FAFD8
:100E880020AF384600F020F8B36B002D7FF43AAF5E
:100E9800384600F015F862E700F1340191E83800AF
:100EA8009C46A6464CF8045D90E8FF0FE54600BD59
:100EB80090EC210B704700BF80EC210B704700BFFE
:100EC80090EC200B704700BF80EC200B704700BFF0
:100ED800D0EC200B704700BFC0EC200B704700BF60
:100EE800F0EC0201F0EC0211F0EC0221F0EC02311E
:100EF800F0EC0241F0EC0251F0EC0261F0EC02710E
:100F0800F0EC0281F0EC0291F0EC02A1F0EC02B1FD
:100F1800F0EC02C1F0EC02D1F0EC02E1F0EC02F1ED
:100F2800704700BFE0EC0201E0EC0211E0EC0221A6
:100F3800E0EC0231E0EC0241E0EC0251E0EC02614D
:100F4800E0EC0271E0EC0281E0EC0291E0EC02A13D
:100F5800E0EC02B1E0EC02C1E0EC02D1E0EC02E12D
:100F6800E0EC02F1704700BFB0FC0181B0FC0191D8
:100F7800B0FC01A1B0FC01B1704700BFA0FC018129
:100F8800A0FC0191A0FC01A1A0FC01B1704700BF29
:100F9800EC4600B52DE900502DE9FF1F4FF0000386
:100FA8002DE90C0001A9FFF7E1FBDDF840E012B0E4
:100FB800704700BFEC4600B52DE900502DE9FF1F32
:100FC8004FF000032DE90C0001A9FFF70BFCDDF839
:100FD80040E012B0704700BFEC4600B52DE9005064
:100FE8002DE9FF1F4FF000032DE90C0001A9FFF7C1
:100FF8001BFCDDF840E012B0704700BFEC4600B5BE
:101008002DE900502DE9FF1F4FF000032DE90C00DA
:1010180001ABFFF7DFFBDDF840E012B0704700BF1F
:10102800EC4600B52DE900502DE9FF1F4FF00003F5
:101038002DE90C0001AAFFF751FCDDF840E012B0E1
:10104800704700BF027A03467AB9427AA2B1416872
:10105800013A10B44272086803220C1D1A72020287
:101068005C60000E10BC1A6070470068013A1A7282
:1010780002021A60000E7047B020704700B585B0B4
:10108800002303AA009219460C22FFF7DDFB039800
:1010980005B05DF804FB00BFF0E700BF2DE9F043A1
:1010A800054685B00E464FF000083046FFF7CAFFE8
:1010B800B028044600F0BA80070620D500F0F003F7
:1010C800802B4DD0902B36D0A02B60D0B02B74D075
:1010D800C02B00F08B8000F0F803D02B0BD100F070
:1010E80007020132052342F4002201212846FFF7B6
:1010F80091FD0028D9D0092005B0BDE8F083830010
:10110800DBB21F1D0DF10C0900231946CDF8009024
:101118000D222846FFF798FB039BCDF80090600648
:101128004CBFDF1BFF1800230D22194628460397E2
:10113800FFF7B0FBB9E700F00D030D2BDBD003AFD1
:10114800002300F00F02194600972846FFF77CFBA2
:10115800002300970D2219462846FFF79BFBA4E7BA
:101168003046FFF76FFF24022043B0F5004FC2D08E
:1011780004010023A2B219462846FFF74BFD0028B8
:10118800B9D114F4004F18BF4FF001088DE7C243DE
:1011980002F007034FF47F621A41010702F47F62ED
:1011A8004FF0000348BF42F4804219462846FFF733
:1011B80031FD00283FF479AF9DE7B1283BD0B22834
:1011C80000F09380B32841D000F0FC03B42B92D0F8
:1011D80000F007020132012342F400221946284692
:1011E800FFF718FD00283FF460AF84E7C6284AD00F
:1011F800C72854D000F0F803C02B63D0C82868D0A3
:10120800C9287FF478AF3046FFF71CFF020300F0CF
:101218000F0002F470220130024301210523284601
:10122800FFF7F8FC00283FF440AF64E7B8F1000F7F
:1012380018D0002060E73046FFF704FF0246002878
:101248003FF459AF10F0F003C8D054E73046FFF729
:10125800F9FE020300F00F03013302F470221A436F
:101268000123BBE703AC43460E22414600942846BF
:10127800FFF7EAFA009443460F2241462846FFF753
:1012880009FB404638E73046FFF7DCFE020300F072
:101298000F03013302F470221A4303239EE73046FA
:1012A800FFF7D0FE024600283FF425AF10F0F00308
:1012B8007FF421AF04212846FFF7ACFC00283FF457
:1012C800F4AE18E700F00F020132032342F42022A3
:1012D80084E73046FFF7B6FE00F0F00200F00F0397
:1012E8001032013343EA023297E700230DF10C096B
:1012F8000D221946CDF800902846FFF7A5FA30468A
:10130800FFF7A0FE02064FF002040CD5039B00F085
:101318007F00A040184403903046FFF793FE030671
:1013280004F10704F2D4039BCDF8009000F07F028B
:10133800A24003F501731A440023039219460D22B3
:101348002846FFF7A7FAB0E610B5C26C536884B018
:101358004FF0030C08321C0208461B0E01A9019429
:1013680002928DF80CC08DF80D30FFF797FE04B08F
:1013780010BD00BF08B5FFF78FFE806C08BD00BF29
:1013880008B5FFF789FEC06CC379023300EB830010
:1013980008BD00BF704700BF82B0002100910B4B11
:1013A8001A6B42F080021A631A6B02F080020092F4
:1013B800009A01911A6B42F001021A631B6B03F049
:1013C80001030193019B02B0704700BF003802403F
:1013D80082B0002100910B4B5A6C42F480425A644F
:1013E8005A6C02F480420092009A01911A6C42F001
:1013F80080521A641B6C03F080530193019B02B066
:10140800704700BF00380240FEE7FEE7FEE7FEE750
:10141800FEE770477047704708B500F079F808BDD7
:10142800034AD2F8883043F47003C2F88830704712
:1014380000ED00E0FEE7FEE7FEE7FEE7FEE7FEE779
:10144800FEE7FEE7FEE7FEE7FEE7FEE7074B1B6960
:1014580013F0010F08D0064A136801331360034ADA
:10146800136923F001031361704700BF00100040A7
:101478008C000020054B1B6913F0010F04D0034AB0
:10148800136923F001031361704700BF0010004087
:1014980010B504460E4B18784FF47A73B3FBF0F38B
:1014A8000C4A1068B0FBF3F000F08EF868B90F2C06
:1014B80001D901200AE0002221464FF0FF3000F058
:1014C8004BF8054B1C60002000E0012010BD00BF58
:1014D80004000020000000200800002008B50B4B85
:1014E8001A6842F400721A601A6842F480621A603C
:1014F8001A6842F480721A60032000F01BF80F206B
:10150800FFF7C6FFFFF764FF002008BD003C02405C
:10151800034A1168034B1B780B441360704700BFE4
:101528009000002004000020014B1868704700BF9D
:1015380090000020074AD36823F4E0631B041B0CC7
:10154800000200F4E060034343F0BF6343F4003358
:10155800D360704700ED00E000B5194BDB68C3F3BA
:101568000223C3F1070CBCF1040F28BF4FF0040C91
:1015780003F1040EBEF1060F18D9033B4FF0FF3EEE
:101588000EFA0CFC21EA0C0199400EFA03F322EA48
:101598000303194300280BDB0901C9B200F16040BD
:1015A80000F5614080F800135DF804FB0023E5E7CF
:1015B80000F00F000901C9B2024B1954F4E700BF4B
:1015C80000ED00E014ED00E00138B0F1807F0BD2AF
:1015D8004FF0E0235861054AF02182F823100020DB
:1015E800986107221A6170470120704700ED00E0FA
:1015F800002800F0E08170B582B00446036813F05B
:10160800010F3BD09F4B9B6803F00C03042B2CD09D
:101618009C4B9B6803F00C03082B21D06368B3F53F
:10162800803F4FD0B3F5A02F52D0964B1A6822F4C2
:1016380080321A601A6822F480221A606368002BCC
:1016480050D0FFF771FF05468E4B1B6813F4003F1F
:1016580014D1FFF769FF401B6428F5D90320B1E1D5
:10166800884B5B6813F4800FD8D0864B1B6813F443
:10167800003F03D06368002B00F09F81236813F0BC
:10168800020F54D07F4B9B6813F00C0F3ED07D4B5C
:101698009B6803F00C03082B33D0E368002B68D059
:1016A800794B01221A60FFF73FFF0546754B1B680F
:1016B80013F0020F54D1FFF737FF401B0228F5D96A
:1016C80003207FE16F4A136843F480331360B5E762
:1016D8006C4B1A6842F480221A601A6842F480320D
:1016E8001A60ABE7FFF720FF0546664B1B6813F44B
:1016F800003FC3D0FFF718FF401B6428F5D903202B
:1017080060E1604B5B6813F4800FC6D15D4B1B68CA
:1017180013F0020F03D0E368012B40F05081594ABF
:10172800136823F0F803216943EAC10313602368AF
:1017380013F0080F42D063696BB3534B0122C3F80F
:10174800802EFFF7F1FE05464E4B5B6F13F0020F3C
:1017580034D1FFF7E9FE401B0228F5D9032031E117
:10176800484A136823F0F803216943EAC103136068
:10177800DDE7454B00221A60FFF7D6FE0546414BD0
:101788001B6813F0020FD2D0FFF7CEFE401B0228D1
:10179800F5D9032016E13C4B0022C3F8802EFFF751
:1017A800C3FE0546374B5B6F13F0020F06D0FFF7F9
:1017B800BBFE401B0228F5D9032003E1236813F080
:1017C800040F77D02F4B1B6C13F0805F33D10023AD
:1017D80001932C4B1A6C42F080521A641B6C03F074
:1017E80080530193019B0125284B1B6813F4807FCC
:1017F80023D0A368012B34D0052B38D0214B1A6F86
:1018080022F001021A671A6F22F004021A67A3680D
:10181800002B3DD0FFF788FE06461A4B1B6F13F0CE
:10182800020F46D1FFF780FE801B41F288339842B1
:10183800F3D90320C6E00025D6E7144A136843F419
:1018480080731360FFF770FE0646104B1B6813F495
:10185800807FCED1FFF768FE801B0228F5D90320D0
:10186800B0E0084A136F43F001031367CFE7054B55
:101878001A6F42F004021A671A6F42F001021A67DF
:10188800C5E700BF00380240000047420070004032
:10189800FFF74AFE0646524B1B6F13F0020F08D0A3
:1018A800FFF742FE801B41F288339842F3D90320A8
:1018B80088E0EDB9A369002B00F08380484A92685C
:1018C80002F00C02082A51D0022B17D0454B0022F7
:1018D8001A66FFF729FE0446414B1B6813F0007F88
:1018E80042D0FFF721FE001B0228F5D9032069E04A
:1018F8003B4A136C23F080531364DBE7394B002217
:101908001A66FFF711FE0546354B1B6813F0007F7A
:1019180006D0FFF709FE401B0228F5D9032051E045
:10192800E369226A1343626A43EA8213A26A52088D
:10193800013A43EA0243E26A43EA0263284A5360EF
:10194800284B01221A66FFF7EFFD0446244B1B685B
:1019580013F0007F06D1FFF7E7FD001B0228F5D939
:1019680003202FE000202DE000202BE0012B2BD0BE
:101978001B4B5B6803F48001E269914226D103F0B6
:101988003F02216A8A4223D1616A47F6C0721A402F
:10199800B2EB811F1ED103F44031A26A5208013A0A
:1019A800B1EB024F18D103F07063E26AB3EB026F38
:1019B80014D1002006E001207047012002E0012038
:1019C80000E0002002B070BD0120FBE70120F9E72C
:1019D8000120F7E70120F5E70120F3E70120F1E70F
:1019E800003802400000474208B52F4B9B6803F0BF
:1019F8000C03082B01D02D4808BD2B4B5A6802F068
:101A08003F025B6813F4800F2AD0274B5968C1F353
:101A1800881C4FEA4C11B1EB0C006EEB0E0E4FEA2E
:101A28008E1343EA90638101091A63EB0E03DB000E
:101A380043EA5173C90011EB0C0C43F100039902FE
:101A480000234FEA8C2041EA9C51FEF7B9FB164B64
:101A58005B68C3F3014301335B00B0FBF3F0CBE7F2
:101A6800114B5968C1F3881C4FEA4C11B1EB0C00BB
:101A78006EEB0E0E4FEA8E1343EA90638101091A4A
:101A880063EB0E03DB0043EA5173C90011EB0C0C46
:101A980043F10003990200234FEA8C2041EA9C514C
:101AA800FEF78EFBD3E700BF003802400024F400A5
:101AB800002800F09B8070B50D4604464F4B1B680C
:101AC80003F007038B4208D2CBB24C4A1370136859
:101AD80003F007038B4240F08B80236813F0020F5A
:101AE80017D013F0040F04D0454A936843F4E05329
:101AF8009360236813F0080F04D0414A936843F4B5
:101B0800604393603E4A936823F0F003A1680B4357
:101B18009360236813F0010F32D06368012B21D042
:101B28009A1E012A25D9364A126812F0020F61D08E
:101B380033498A6822F0030213438B60FFF7F4FCF1
:101B480006462F4B9B6803F00C036268B3EB820FC9
:101B580016D0FFF7E9FC801B41F288339842F0D990
:101B6800032042E0264A126812F4003FE0D1012027
:101B78003BE0234A126812F0007FD9D1012034E0FB
:101B88001E4B1B6803F00703AB4207D9EAB21B4B95
:101B98001A701B6803F00703AB422DD1236813F0BA
:101BA800040F06D0164A936823F4E053E1680B4308
:101BB8009360236813F0080F07D0114A936823F441
:101BC8006043216943EAC1039360FFF70DFF0C4BA3
:101BD8009B68C3F303130B4AD35CD8400A4B1860C5
:101BE8000A4B1868FFF754FC002070BD01207047AD
:101BF8000120FAE70120F8E70120F6E7003C02405F
:101C080000380240701E0008000000200800002074
:101C180072B6FEE700B595B03022002108A800F0A2
:101C2800A3F8002303930493059306930793019362
:101C3800204A116C41F080511164126C02F08052FC
:101C48000192019A02931C4B1A6842F480421A606E
:101C58001B6803F480430293029B012308934FF40B
:101C68008033099302230E934FF480020F920822C7
:101C78001092A822119212930423139308A8FFF735
:101C8800B7FC98B90F230393022304930023059309
:101C98004FF4A05306934FF480530793052103A8EC
:101CA800FFF706FF20B915B05DF804FBFFF7B0FF9A
:101CB800FFF7AEFF003802400070004008B5FFF79C
:101CC8000DFCFFF7A7FFFFF767FBFEE7DFF834D04F
:101CD8000D480E490E4A002302E0D458C45004337C
:101CE800C4188C42F9D30B4A0B4C002301E0136053
:101CF8000432A242FBD3FFF793FB00F011F8FFF781
:101D0800DDFF704700000220000000207000002066
:101D1800DC1F00087000002098000020FEE700008B
:101D280070B50D4D0D4C641BA4100026A64209D1B8
:101D38000B4D0C4C00F08CF8641BA4100026A64236
:101D480005D170BD55F8043B98470136EEE755F8C4
:101D5800043B98470136F2E7D41F0008D41F000857
:101D6800D41F0008D81F000802440346934200D13C
:101D7800704703F8011BF9E708B5062000F03AF8A8
:101D8800012000F063F80A44914200F1FF3300D1CA
:101D9800704710B511F8014B03F8014F9142F9D182
:101DA80010BD1F2938B504460D4604D91623036013
:101DB8004FF0FF3038BD426C12B152F821304BB9A8
:101DC800204600F031F82A4601462046BDE8384052
:101DD80000F018B8012B0AD0591C03D11623036050
:101DE8000120E7E7002442F82540284698470020CC
:101DF800E0E70000024B01461868FFF7D2BF00BFBA
:101E08000C00002038B5074D00230446084611464B
:101E18002B6000F013F8431C02D12B6803B1236038
:101E280038BD00BF9400002000F000B8024B5822D3
:101E38001A604FF0FF30704794000020024B582280
:101E48001A604FF0FF30704794000020FEE700BF93
:101E5800F8B500BFF8BC08BC9E467047F8B500BF8F
:081E6800F8BC08BC9E4670475F
:101E7000000000000000000001020304060708093A
:101E80000000000000000000000000000000000052
:101E90000000000000000000000000000000000042
:101EA0000000000000000000000000000000000032
:101EB0000000000000000000000000000000000022
:101EC0000000000000000000000000000000000012
:101ED0000000000000000000000000000000000002
:101EE00008B10181B0B000840000000008B1018198
:101EF000B0B000840000000008B10181B0B00084DF
:041F000000000000DD
:101F0400F4E2FF7F0100000054E6FF7FB0A90280E5
:101F1400E8E6FF7FB0B0A88038E7FF7F010000004B
:101F240044E7FF7FB0B0AA8078E7FF7FAE71B2804C
:101F34003CE8FF7F0100000038E8FF7FAB3F3880BA
:101F440098E8FF7F01000000A0E8FF7FB0B0AA80FE
:101F5400DCE8FF7F0100000088E9FF7FAA0DB28062
:101F640004EAFF7FB0AF0880A4ECFF7F010000000B
:101F7400A8ECFF7FAD3F028024EFFF7F010000004B
:101F840000F1FF7F0084048014F1FF7F0100000052
:101F940010F1FF7FB0AD0480B4F3FF7FB0A80380DD
:101FA400D8F3FF7F44FFFF7FDCF3FF7F48FFFF7F11
:101FB400E8F3FF7F0100000060FCFF7F00841480D1
:101FC40000FDFF7F18FFFF7F08FDFF7F0100000079
:041FD400AD01000853
:041FD8008901000873
:101FDC000024F4000100000010000000100000209C
:101FEC0000000000A01E0008C01E0008801E000893
:101FFC0000000000000000000000000000000000D5
:10200C0000000000000000000000000000000000C4
:10201C0000000000000000000000000000000000B4
:10202C0000000000000000000000000000000000A4
:10203C000000000000000000000000000000000094
:0400000508001CD5FE
:00000001FF
