:020000040800F2
:1000000000000220010E0008F9050008FB050008A9
:10001000FD050008FF0500080106000800000000BB
:1000200000000000000000000000000003060008BF
:100030000506000800000000070600080906000881
:10004000510E0008510E0008510E0008510E000814
:10005000510E0008510E0008510E0008510E000804
:10006000510E0008510E0008510E0008510E0008F4
:10007000510E0008510E0008510E0008510E0008E4
:10008000510E0008510E0008510E0008510E0008D4
:10009000510E0008510E0008510E0008510E0008C4
:1000A0002506000827060008290600082B06000878
:1000B0002D0600082F06000831060008510E000822
:1000C000510E0008510E0008510E0008510E000894
:1000D000510E0008510E0008510E0008510E000884
:1000E000510E0008510E0008510E0008330600089A
:1000F000350600083706000839060008510E0008CA
:10010000510E0008510E00083B060008510E000871
:10011000510E0008510E00083D0600086506000853
:10012000510E0008510E0008510E0008510E000833
:10013000510E0008510E0008510E0008510E000823
:10014000510E0008510E0008510E0008510E000813
:10015000510E0008510E0008510E0008510E000803
:10016000510E0008510E0008510E0008510E0008F3
:10017000510E0008510E0008510E0008510E0008E3
:08018000510E0008510E0008A9
:1001880010B5054C237833B9044B13B10448AFF3C9
:1001980000800123237010BD0C0000200000000027
:1001A800AC0E000808B5034B1BB103490348AFF375
:1001B800008008BD0000000010000020AC0E000800
:1001C80053B94AB9002908BF00281CBF4FF0FF31B6
:1001D8004FF0FF3000F074B9ADF1080C6DE904CEB2
:1001E80000F006F8DDF804E0DDE9022304B070470A
:1001F8002DE9F047089D04468E46002B4DD18A42D2
:10020800944669D9B2FA82F252B101FA02F3C2F104
:10021800200120FA01F10CFA02FC41EA030E944095
:100228004FEA1C48210CBEFBF8F61FFA8CF708FBB6
:1002380016E341EA034306FB07F199420AD91CEB8E
:10024800030306F1FF3080F01F81994240F21C81C0
:10025800023E63445B1AA4B2B3FBF8F008FB103308
:1002680044EA034400FB07F7A7420AD91CEB04043D
:1002780000F1FF3380F00A81A74240F2078164440D
:10028800023840EA0640E41B00261DB1D440002392
:10029800C5E900433146BDE8F0878B4209D9002DF6
:1002A80000F0EF800026C5E9000130463146BDE880
:1002B800F087B3FA83F6002E4AD18B4202D38242EA
:1002C80000F2F980841A61EB030301209E46002D99
:1002D800E0D0C5E9004EDDE702B9FFDEB2FA82F2EE
:1002E800002A40F09280A1EB0C014FEA1C471FFA4C
:1002F8008CFE0126200CB1FBF7F307FB131140EA33
:1003080001410EFB03F0884208D91CEB010103F1FF
:10031800FF3802D2884200F2CB804346091AA4B2C1
:10032800B1FBF7F007FB101144EA01440EFB00FE95
:10033800A64508D91CEB040400F1FF3102D2A645FA
:1003480000F2BB800846A4EB0E0440EA03409CE799
:10035800C6F12007B34022FA07FC4CEA030C20FA46
:1003680007F401FA06F31C43F9404FEA1C4900FA66
:1003780006F3B1FBF9F8200C1FFA8CFE09FB1811E3
:1003880040EA014108FB0EF0884202FA06F20BD956
:100398001CEB010108F1FF3A80F08880884240F2A6
:1003A8008580A8F102086144091AA4B2B1FBF9F0EA
:1003B80009FB101144EA014100FB0EFE8E4508D9E5
:1003C8001CEB010100F1FF346CD28E456AD902386A
:1003D800614440EA0840A0FB0294A1EB0E01A1424F
:1003E800C846A64656D353D05DB1B3EB080261EBBD
:1003F8000E0101FA07F722FA06F3F1401F43C5E997
:10040800007100263146BDE8F087C2F12003D840CC
:100418000CFA02FC21FA03F3914001434FEA1C470E
:100428001FFA8CFEB3FBF7F007FB10360B0C43EA00
:10043800064300FB0EF69E4204FA02F408D91CEBB0
:10044800030300F1FF382FD29E422DD902386344AE
:100458009B1B89B2B3FBF7F607FB163341EA03414E
:1004680006FB0EF38B4208D91CEB010106F1FF389D
:1004780016D28B4214D9023E6144C91A46EA004694
:1004880038E72E46284605E70646E3E61846F8E626
:100498004B45A9D2B9EB020864EB0C0E0138A3E76F
:1004A8004646EAE7204694E74046D1E7D0467BE750
:1004B800023B614432E7304609E76444023842E7C8
:1004C800704700BF82B0002100910B4B1A6B42F0BD
:1004D80080021A631A6B02F080020092009A01915E
:1004E8001A6B42F001021A631B6B03F001030193BC
:1004F800019B02B0704700BF0038024072B6FEE7A9
:1005080000B595B03022002108A800F0C3FC0023F4
:10051800039304930593069307930193204A116C60
:1005280041F080511164126C02F080520192019ADC
:1005380002931C4B1A6842F480421A601B6803F449
:1005480080430293029B012308934FF4803309935D
:1005580002230E934FF480020F9208221092A822D1
:10056800119212930423139308A800F035F998B94F
:100578000F23039302230493002305934FF4A053FE
:1005880006934FF480530793052103A800F084FBDA
:1005980020B915B05DF804FBFFF7B0FFFFF7AEFF19
:1005A800003802400070004008B500F08BF8FFF7F3
:1005B800A7FFFFF787FFFEE782B0002100910B4BF2
:1005C8005A6C42F480425A645A6C02F48042009297
:1005D800009A01911A6C42F080521A641B6C03F065
:1005E80080530193019B02B0704700BF003802405E
:1005F800FEE7FEE7FEE7FEE7FEE770477047704755
:1006080008B500F079F808BD034AD2F8883043F4F9
:100618007003C2F88830704700ED00E0FEE7FEE79F
:10062800FEE7FEE7FEE7FEE7FEE7FEE7FEE7FEE79A
:10063800FEE7FEE7074B1B6913F0010F08D0064AD7
:10064800136801331360034A136923F0010313612C
:10065800704700BF0010004028000020054B1B69B0
:1006680013F0010F04D0034A136923F00103136147
:10067800704700BF0010004010B504460E4B1878B4
:100688004FF47A73B3FBF0F30C4A1068B0FBF3F045
:1006980000F08EF868B90F2C01D901200AE0002279
:1006A80021464FF0FF3000F04BF8054B1C6000204E
:1006B80000E0012010BD00BF040000200000002061
:1006C8000800002008B50B4B1A6842F400721A6043
:1006D8001A6842F480621A601A6842F480721A60DA
:1006E800032000F01BF80F20FFF7C6FFFFF764FF99
:1006F800002008BD003C0240034A1168034B1B78E8
:100708000B441360704700BF2C0000200400002039
:10071800014B1868704700BF2C000020074AD368B7
:1007280023F4E0631B041B0C000200F4E0600343A5
:1007380043F0BF6343F40033D360704700ED00E03B
:1007480000B5194BDB68C3F30223C3F1070CBCF1F6
:10075800040F28BF4FF0040C03F1040EBEF1060F7E
:1007680018D9033B4FF0FF3E0EFA0CFC21EA0C01AE
:1007780099400EFA03F322EA0303194300280BDB1E
:100788000901C9B200F1604000F5614080F800132A
:100798005DF804FB0023E5E700F00F000901C9B28A
:1007A800024B1954F4E700BF00ED00E014ED00E03F
:1007B8000138B0F1807F0BD24FF0E0235861054A31
:1007C800F02182F823100020986107221A617047EF
:1007D8000120704700ED00E0002800F0E08170B5CE
:1007E80082B00446036813F0010F3BD09F4B9B680F
:1007F80003F00C03042B2CD09C4B9B6803F00C03D8
:10080800082B21D06368B3F5803F4FD0B3F5A02FF4
:1008180052D0964B1A6822F480321A601A6822F471
:1008280080221A606368002B50D0FFF771FF0546DD
:100838008E4B1B6813F4003F14D1FFF769FF401B70
:100848006428F5D90320B1E1884B5B6813F4800F65
:10085800D8D0864B1B6813F4003F03D06368002B85
:1008680000F09F81236813F0020F54D07F4B9B68E0
:1008780013F00C0F3ED07D4B9B6803F00C03082B44
:1008880033D0E368002B68D0794B01221A60FFF758
:100898003FFF0546754B1B6813F0020F54D1FFF755
:1008A80037FF401B0228F5D903207FE16F4A136800
:1008B80043F480331360B5E76C4B1A6842F4802226
:1008C8001A601A6842F480321A60ABE7FFF720FF1B
:1008D8000546664B1B6813F4003FC3D0FFF718FFAB
:1008E800401B6428F5D9032060E1604B5B6813F472
:1008F800800FC6D15D4B1B6813F0020F03D0E3686D
:10090800012B40F05081594A136823F0F8032169FC
:1009180043EAC1031360236813F0080F42D06369E8
:100928006BB3534B0122C3F8802EFFF7F1FE054647
:100938004E4B5B6F13F0020F34D1FFF7E9FE401BFB
:100948000228F5D9032031E1484A136823F0F80357
:10095800216943EAC1031360DDE7454B00221A60B1
:10096800FFF7D6FE0546414B1B6813F0020FD2D0A5
:10097800FFF7CEFE401B0228F5D9032016E13C4BB9
:100988000022C3F8802EFFF7C3FE0546374B5B6F86
:1009980013F0020F06D0FFF7BBFE401B0228F5D963
:1009A800032003E1236813F0040F77D02F4B1B6C4F
:1009B80013F0805F33D1002301932C4B1A6C42F063
:1009C80080521A641B6C03F080530193019B01252C
:1009D800284B1B6813F4807F23D0A368012B34D0E5
:1009E800052B38D0214B1A6F22F001021A671A6FB3
:1009F80022F004021A67A368002B3DD0FFF788FE97
:100A080006461A4B1B6F13F0020F46D1FFF780FE04
:100A1800801B41F288339842F3D90320C6E00025B1
:100A2800D6E7144A136843F480731360FFF770FE27
:100A38000646104B1B6813F4807FCED1FFF768FE83
:100A4800801B0228F5D90320B0E0084A136F43F051
:100A580001031367CFE7054B1A6F42F004021A67C8
:100A68001A6F42F001021A67C5E700BF003802405A
:100A78000000474200700040FFF74AFE0646524B0E
:100A88001B6F13F0020F08D0FFF742FE801B41F2E4
:100A980088339842F3D9032088E0EDB9A369002B85
:100AA80000F08380484A926802F00C02082A51D06C
:100AB800022B17D0454B00221A66FFF729FE044681
:100AC800414B1B6813F0007F42D0FFF721FE001B4B
:100AD8000228F5D9032069E03B4A136C23F08053C0
:100AE8001364DBE7394B00221A66FFF711FE05464F
:100AF800354B1B6813F0007F06D0FFF709FE401B3B
:100B08000228F5D9032051E0E369226A1343626A97
:100B180043EA8213A26A5208013A43EA0243E26AAC
:100B280043EA0263284A5360284B01221A66FFF7FA
:100B3800EFFD0446244B1B6813F0007F06D1FFF736
:100B4800E7FD001B0228F5D903202FE000202DE047
:100B580000202BE0012B2BD01B4B5B6803F480019A
:100B6800E269914226D103F03F02216A8A4223D1E9
:100B7800616A47F6C0721A40B2EB811F1ED103F4B6
:100B88004031A26A5208013AB1EB024F18D103F082
:100B98007063E26AB3EB026F14D1002006E0012013
:100BA8007047012002E0012000E0002002B070BD83
:100BB8000120FBE70120F9E70120F7E70120F5E72D
:100BC8000120F3E70120F1E7003802400000474226
:100BD80008B52F4B9B6803F00C03082B01D02D4858
:100BE80008BD2B4B5A6802F03F025B6813F4800F74
:100BF8002AD0274B5968C1F3881C4FEA4C11B1EB36
:100C08000C006EEB0E0E4FEA8E1343EA90638101DF
:100C1800091A63EB0E03DB0043EA5173C90011EBB9
:100C28000C0C43F10003990200234FEA8C2041EA9F
:100C38009C51FFF7C5FA164B5B68C3F301430133B8
:100C48005B00B0FBF3F0CBE7114B5968C1F3881C8C
:100C58004FEA4C11B1EB0C006EEB0E0E4FEA8E13FF
:100C680043EA90638101091A63EB0E03DB0043EA50
:100C78005173C90011EB0C0C43F1000399020023D6
:100C88004FEA8C2041EA9C51FFF79AFAD3E700BF5C
:100C9800003802400024F400002800F09B8070B562
:100CA8000D4604464F4B1B6803F007038B4208D2DE
:100CB800CBB24C4A1370136803F007038B4240F021
:100CC8008B80236813F0020F17D013F0040F04D0A1
:100CD800454A936843F4E0539360236813F0080F80
:100CE80004D0414A936843F4604393603E4A936852
:100CF80023F0F003A1680B439360236813F0010FFE
:100D080032D06368012B21D09A1E012A25D9364A90
:100D1800126812F0020F61D033498A6822F0030288
:100D280013438B60FFF7F4FC06462F4B9B6803F0D8
:100D38000C036268B3EB820F16D0FFF7E9FC801B47
:100D480041F288339842F0D9032042E0264A1268DB
:100D580012F4003FE0D101203BE0234A126812F070
:100D6800007FD9D1012034E01E4B1B6803F0070334
:100D7800AB4207D9EAB21B4B1A701B6803F0070392
:100D8800AB422DD1236813F0040F06D0164A93689E
:100D980023F4E053E1680B439360236813F0080FD2
:100DA80007D0114A936823F46043216943EAC103D9
:100DB8009360FFF70DFF0C4B9B68C3F303130B4ABB
:100DC800D35CD8400A4B18600A4B1868FFF754FCEC
:100DD800002070BD012070470120FAE70120F8E7E4
:100DE8000120F6E7003C024000380240C40E00082B
:100DF8000000002008000020DFF834D00D480E491C
:100E08000E4A002302E0D458C4500433C4188C425C
:100E1800F9D30B4A0B4C002301E013600432A242C1
:100E2800FBD3FFF7F1FB00F011F8FFF7BDFB7047AC
:100E380000000220000000200C000020E40E000842
:100E48000C00002030000020FEE7000070B50D4DBA
:100E58000D4C641BA4100026A64209D10B4D0C4C66
:100E680000F020F8641BA4100026A64205D170BD2E
:100E780055F8043B98470136EEE755F8043B984788
:100E88000136F2E7DC0E0008DC0E0008DC0E000874
:100E9800E00E000802440346934200D1704703F86D
:100EA800011BF9E7F8B500BFF8BC08BC9E467047BF
:0C0EB800F8B500BFF8BC08BC9E467047AF
:100EC40000000000000000000102030406070809F6
:080ED40024F3FF7F0100000080
:040EDC00AD0100085C
:040EE000890100087C
:0C0EE4000024F4000100000010000000D9
:0400000508000E01E0
:00000001FF
